:020000040000FA
:1000000000308A00182800002F3084008313000875
:10001000031917280630F800F701F70B0D28F80B25
:100020000C287B30F700F70B1328800B0A280034CC
:10003000840183131F30830583161F149F141F151B
:100040009F11FF308312A0000130A100A2013F30B8
:10005000A4000630A5005B30A6004F30A700663034
:10006000A8006D30A9007D30AA000730AB007F30BA
:10007000AC006730AD00AE0100308316880086000A
:10008000850087008312A000AE012E08083C031CE7
:100090008028A3012308313C031C7E28A0102008DF
:1000A000831687008312871020102008831687008C
:1000B00083120714831688013F30831288000A30A8
:1000C000AF00042020102008831687008312071039
:1000D000A0102008831687008312871424302E076F
:1000E000840083130008AF008316880183122F0851
:1000F00088000A30AF000420A30A4A28A30A452832
:06010000442844286300BE
:02400E00723FFF
:00000001FF
;PIC16F877
;CRC=DF25  CREATED="14-jul-17 10:31"
