:020000040000FA
:1000000000308A0004280000840183131F30830518
:10001000193083169900A63098009030831298000A
:1000200083161F149F141F159F1110308312A100F7
:100030002730A2002310FF3083168800003086008E
:10004000831286012310881A2314231C8612231876
:100050008616231C061023180614231C861023184A
:100060008614231C061123180615231C8611231839
:100070008615231C061223180616231C06132318A4
:100080000617231C86132318861721080319A203B9
:10009000A10B5328A208031D53282730A2001030BB
:0A00A000A10001308606222863004B
:02400E00723FFF
:00000001FF
;PIC16F877
;CRC=08D3  CREATED="10-jul-17 12:17"
