:020000040000FA
:1000000000308A00182800002E3084008313000876
:10001000031917280630F800F701F70B0D28F80B25
:100020000C287B30F700F70B1328800B0A280034CC
:10003000840183131F30830583161F149F141F151B
:100040009F11FF308312A0000130A100A2013F30B8
:10005000A4000630A5005B30A6004F30A700663034
:10006000A8006D30A9007D30AA000730AB007F30BA
:10007000AC006730AD000030831688008600850034
:1000800087008312A000210B012CA208031D012C64
:10009000831605168312051E2A2AA3012308313C64
:1000A000031C8228A0102008831687008312871063
:1000B00020102008831687008312071483168801F6
:1000C0003F30831288000A30AE0004202010200840
:1000D0008316870083120710A0102008831687005C
:1000E0008312871424302307840083130008AE0092
:1000F0008316880183122E0888000A30AE0004207F
:10010000A30A4E28A3012308313C031CB128A010E8
:10011000200883168700831287102010200883167A
:10012000870083120714831688013F3083128800EA
:100130000A30AE00042020102008831687008312A6
:100140000710A010200883168700831287148316D7
:1001500088010630831288000A30AE000420A30A0A
:100160008328A3012308313C031CE028A0102008A9
:1001700083168700831287102010200883168700BB
:1001800083120714831688013F30831288000A30D7
:10019000AE00042020102008831687008312071069
:1001A000A010200883168700831287148316880105
:1001B0005B30831288000A30AE000420A30AB22804
:1001C000A3012308313C031C0F29A010200883162B
:1001D000870083128710201020088316870083125F
:1001E0000714831688013F30831288000A30AE005E
:1001F0000420201020088316870083120710A01007
:1002000020088316870083128714831688014F30D5
:10021000831288000A30AE000420A30AE128A3015B
:100220002308313C031C3E29A010200883168700B8
:10023000831287102010200883168700831207146A
:10024000831688013F30831288000A30AE000420F4
:10025000201020088316870083120710A0102008A2
:1002600083168700831287148316880166308312F1
:1002700088000A30AE000420A30A1029A301230835
:10028000313C031C6D29A0102008831687008312BF
:100290008710201020088316870083120714831606
:1002A00088013F30831288000A30AE0004202010FD
:1002B00020088316870083120710A01020088316D9
:1002C000870083128714831688016D30831288009B
:1002D0000A30AE000420A30A3F29A3012308313CC1
:1002E000031C9C29A0102008831687008312871006
:1002F00020102008831687008312071483168801B4
:100300003F30831288000A30AE00042020102008FD
:100310008316870083120710A01020088316870019
:1003200083128714831688017D30831288000A3077
:10033000AE000420A30A6E29A3012308313C031C4C
:10034000CB29A01020088316870083128710201065
:1003500020088316870083120714831688013F3014
:10036000831288000A30AE00042020102008831673
:10037000870083120710A0102008831687008312BD
:100380008714831688010730831288000A30AE0074
:100390000420A30A9D29A3012308313C031CFA2948
:1003A000A0102008831687008312871020102008D1
:1003B0008316870083120714831688013F30831247
:1003C00088000A30AE000420201020088316870021
:1003D00083120710A0102008831687008312871449
:1003E000831688017F30831288000A30AE00042013
:1003F000A30ACC29A3012308313C031C292AA010FD
:100400002008831687008312871020102008831687
:10041000870083120714831688013F3083128800F7
:100420000A30AE00042020102008831687008312B3
:100430000710A010200883168700831287148316E4
:1004400088016730831288000A30AE000420A30AB6
:10045000FB29002CA3012308313C031C592AA010BE
:100460002008831687008312871020102008831627
:10047000870083120714831688013F308312880097
:100480000A30AE0004202010200883168700831253
:100490000710A01020088316870083128714831684
:1004A00088016730831288000A30AE000420A30A56
:1004B0002B2AA3012308313C031C882AA010200802
:1004C0008316870083128710201020088316870068
:1004D00083120714831688013F30831288000A3084
:1004E000AE00042020102008831687008312071016
:1004F000A0102008831687008312871483168801B2
:100500007F30831288000A30AE000420A30A5A2AE2
:10051000A3012308313C031CB72AA010200883162E
:10052000870083128710201020088316870083120B
:100530000714831688013F30831288000A30AE000A
:100540000420201020088316870083120710A010B3
:1005500020088316870083128714831688010730CA
:10056000831288000A30AE000420A30A892AA3015E
:100570002308313C031CE62AA010200883168700BC
:100580008312871020102008831687008312071417
:10059000831688013F30831288000A30AE000420A1
:1005A000201020088316870083120710A01020084F
:1005B0008316870083128714831688017D30831287
:1005C00088000A30AE000420A30AB82AA301230839
:1005D000313C031C152BA0102008831687008312C2
:1005E00087102010200883168700831207148316B3
:1005F00088013F30831288000A30AE0004202010AA
:1006000020088316870083120710A0102008831685
:10061000870083128714831688016D308312880047
:100620000A30AE000420A30AE72AA3012308313CC4
:10063000031C442BA0102008831687008312871008
:100640002010200883168700831207148316880160
:100650003F30831288000A30AE00042020102008AA
:100660008316870083120710A010200883168700C6
:1006700083128714831688016630831288000A303B
:10068000AE000420A30A162BA3012308313C031C4F
:10069000732BA01020088316870083128710201068
:1006A00020088316870083120714831688013F30C1
:1006B000831288000A30AE00042020102008831620
:1006C000870083120710A01020088316870083126A
:1006D0008714831688014F30831288000A30AE00D9
:1006E0000420A30A452BA3012308313C031CA22BA1
:1006F000A01020088316870083128710201020087E
:100700008316870083120714831688013F308312F3
:1007100088000A30AE0004202010200883168700CD
:1007200083120710A01020088316870083128714F5
:10073000831688015B30831288000A30AE000420E3
:10074000A30A742BA3012308313C031CD12BA01056
:100750002008831687008312871020102008831634
:10076000870083120714831688013F3083128800A4
:100770000A30AE0004202010200883168700831260
:100780000710A01020088316870083128714831691
:1007900088010630831288000A30AE000420A30AC4
:1007A000A32BA3012308313C031C002CA01020081C
:1007B0008316870083128710201020088316870075
:1007C00083120714831688013F30831288000A3091
:1007D000AE00042020102008831687008312071023
:1007E000A0102008831687008312871483168801BF
:1007F0003F30831288000A30AE000420A30AD22BB7
:06080000432843286300B9
:02400E00723FFF
:00000001FF
;PIC16F877
;CRC=9E05  CREATED="13-jul-17 14:04"
