:020000040000FA
:1000000000308A007D280000FF00030E8301A1005C
:100010000A08A0008A010408A2007708A300780853
:10002000A4007908A5007A08A6007B08A70083131E
:1000300083128B1E1D280B1936288C308400801EDD
:1000400023288C1A3928220884002308F700240862
:10005000F8002508F9002608FA002708FB00200808
:100060008A00210E8300FF0E7F0E09008A110A12FA
:100070003C288A110A125328AA08031D432829087C
:10008000993C03184C28AB08031D49280130AB00EC
:100090004A28AB01AA01A901A90A0319AA0A0B114E
:1000A0008A110A122328A8018C1E79288C1E562832
:1000B0001A08A800A808031979282808613C031D1C
:1000C0006528AC010130B700B8012808623C031D67
:1000D0006F280A30AC00FF30B7000130B8002808A4
:1000E000633C031D7428B70128080C1E752899006D
:1000F000A8018C128A110A122328840183131F304D
:100100008305813083169900A630980090308312C1
:10011000980083161F149F141F159F1120308312FF
:10012000A800A901AA01AB01AC013F30AD00063027
:10013000AE005B30AF004F30B0006630B1006D30C4
:10014000B2007D30B3000730B4007F30B5006730B7
:10015000B6000130B700B8012B08B90083160108BA
:10016000C03906388100640083128B16C0308B04BE
:1001700083168C16831239082B020319E1283708DD
:10018000AC072D302C07840083130008BA008316B7
:10019000880183123A0888000130B800B8080319B2
:1001A000D6282C08083C0318D628AC01B801B8089A
:1001B0000319DF28AC08031DDF280A30AC002B0828
:0601C000B900BB2863003A
:02400E00713F00
:00000001FF
;PIC16F877
;CRC=5B42  CREATED="14-jul-17 13:50"
