:020000040000FA
:1000000001308A0092290000FF00030E8301A10045
:100010000A08A0008A010408A2007708A300780853
:10002000A4007908A5007A08A6007B08A70083131E
:1000300083128C308400801E1F288C1A38288C3044
:100040008400001C25280C183B2822088400230863
:10005000F7002408F8002508F9002608FA00270808
:10006000FB0020088A00210E8300FF0E7F0E09008E
:100070008A110A1284298A110A123E282808F73E9A
:1000800003187329093E7729290803194E28013AD4
:1000900003195C28033A0319662870288316061191
:1000A000831206158316861083128614FE308F0085
:1000B000C7308E00A90A7028831606118312061114
:1000C000FB308F001E308E00A90A70288316861020
:1000D00083128610D5308F0046308E00A90170281B
:1000E0007329290803197B28013A03198928033A3F
:1000F00003199728A528831606118312061583165F
:10010000861083128614FC308F0056308E00A90AA8
:10011000A5288316061183120611831686108312F2
:100120008610D2308F00D5308E00A901A528831605
:100130000611831206118316861083128610D230A0
:100140008F00D5308E00A901A5287329290803192D
:10015000B028013A0319BE28033A0319C828D22847
:1001600083160611831206158316861083128614D1
:10017000FE308F00C7308E00A90AD2288316861061
:1001800083128610FB308F001E308E00A90AD22801
:100190008316061183120611D5308F0046308E006B
:1001A000A901D2287329831606118312061183161A
:1001B000861083128610732929080319E628013A4C
:1001C0000319F428033A0319FE2808298316061197
:1001D000831206158316861083128614FE308F0054
:1001E000C7308E00A90A082983160611831206114A
:1001F000FD308F0084308E00A901082983168610F7
:1002000083128610D2308F00D5308E00A9010829C4
:100210007329290803191329013A03192129033ADB
:1002200003192F293D2983160611831206158316FB
:10023000861083128614FE308F00C7308E00A90A04
:100240003D29831606118312061183168610831228
:100250008610D0308F0064308E00A9013D298316AE
:100260000611831206118316861083128610D03071
:100270008F0064308E00A9013D29732929080319D4
:100280004829013A03195629033A031964297229A6
:1002900083160611831206158316861083128614A0
:1002A000F9308F00E5308E00A90A722983160611F5
:1002B000831206118316861083128610D5308F00A4
:1002C00046308E00A9017229831606118312061189
:1002D0008316861083128610D5308F0046308E002C
:1002E000A901722973290C108A110A1225280A14EF
:1002F0008A100A11820744287128A62873297329B5
:10030000D328DC2809293E298C1E8E298C1E86299B
:100310001A08A80028080C1E8B2999008C128A1133
:100320000A122528840183131F3083058130831628
:100330009900A630980090308312980083161F14FD
:100340009F141F159F1102308312A800A901B53018
:10035000900083168C160C14C03083128B04AF29C6
:02036000630038
:02400E00713F00
:00000001FF
;PIC16F877
;CRC=A9DE  CREATED="26-ago.-17 21:14"
