:020000040000FA
:1000000000308A0018280000233084008313000881
:10001000031917280630F800F701F70B0D28F80B25
:100020000C287B30F700F70B1328800B0A280034CC
:10003000840183131F308305813083169900A63015
:10004000980090308312980083161F149F141F1578
:100050009F110030880088010130831288003230FF
:10006000A3000420831688010230831288003230F6
:10007000A3000420831688010430831288003230E4
:10008000A3000420831688010830831288003230D0
:10009000A3000420831688011030831288003230B8
:1000A000A3000420831688011030831288003230A8
:1000B000A3000420831688010830831288003230A0
:1000C000A300042083168801043083128800323094
:1000D000A300042083168801023083128800323086
:1000E000A300042083168801013083128800323077
:0A00F000A300042083162B286300F0
:02400E00723FFF
:00000001FF
;PIC16F877
;CRC=6FBE  CREATED="13-jul-17 12:17"
