:020000040000FA
:1000000000308A0049280000233084008313000850
:10001000031917280630F800F701F70B0D28F80B25
:100020000C287B30F700F70B1328800B0A280034CC
:100030001030F8001F08C73978049F000130A30072
:1000400004201F151F1922281E08A2001830F800CE
:100050001F08C73978049F000130A30004201F1532
:100060001F1930281E08A1006430A30004202108B5
:1000700084008313221883170030000403194628D4
:1000800000080C1E41289900840A3C288A110A1293
:100090006828840183131F308305813083169900FB
:1000A000A630980090308312980083161F149F1476
:1000B0001F159F1183121F179F1783169F138312FB
:1000C0001F1483161F109F101F119F1183121828D1
:0400D000672863003A
:02400E00723FFF
:00000001FF
;PIC16F877
;CRC=8FDD  CREATED="26-ago.-17 21:38"
