:020000040000FA
:1000000001308A0043290000FF00030E8301A10094
:100010000A08A0008A010408A2007708A300780853
:10002000A4007908A5007A08A6007B08A70083131E
:1000300083128B1E1D280B1936288C308400801EDD
:1000400023288C1A3928220884002308F700240862
:10005000F8002508F9002608FA002708FB00200808
:100060008A00210E8300FF0E7F0E09008A110A12FA
:1000700047288A110A12AB280A108A100A1182072F
:10008000763465346C343A34253475340034AA0837
:10009000031D4E282908993C03185728AB08031D57
:1000A00054280130AB005528AB01AA01A901A90AC7
:1000B0000319AA0A0B118A110A1223283408F8011D
:1000C0003302031866283308F7007228F701083056
:1000D000B500B30DF70D340877020318F700F80DDB
:1000E000B50B6928003478083108B3006430B400D7
:1000F0005E207708B10078083030031D8628B21CD6
:100100008E28B2198E28321A20308928B211321264
:100110003214F80778080C1E8B2899003108B300B8
:100120000A30B4005E207708B10078083030031D33
:100130009F28B219A428321CA428321A2030F807AC
:1001400078080C1EA12899003030B10731080C1E28
:10015000A72899000034A8018C1E3F298C1EAE28C8
:100160001A08A800A80803193F292808773C031D8E
:10017000F22883160810831208148316881083123D
:1001800088102F089500B10131083C20B10AF70012
:1001900077080C1EC928990004303102031DC428B9
:1001A0002F08B1001B30B20073200F30AF022F08B0
:1001B0009500B10131083C20B10AF70077080C1E08
:1001C000DF28990004303102031DDA282F08B1001E
:1001D0001B30B2007320AF08031DF2287D30AF0042
:1001E0002F0895002808613C031D2E29831608104E
:1001F0008312081483168810831288102F08950024
:10020000B10131083C20B10AF70077080C1E06291D
:10021000990004303102031D01292F08B1001B3061
:10022000B20073200F30AF072F089500B1013108DD
:100230003C20B10AF70077080C1E1C2999000430F5
:100240003102031D17292F08B1001B30B2007320A3
:100250002F0F2E297D30AF002F0895002808733C02
:10026000031D3A29831688108312881083160810FC
:100270008312081028080C1E3B299900A8018C1233
:100280008A110A122328840183131F3083058130C9
:1002900083169900A6309800903083129800831638
:1002A0001F149F141F159F1120308312A800A9014D
:1002B000AA01AB01AC010130AD00AE01FF30B000CE
:1002C0009630AF0030113008831687008312071173
:1002D0000C3097000030F80006389200FF3083168B
:1002E000920083122F0895008316861083128614BD
:0E02F00083168C16C03083128B047D296300A8
:02400E00713F00
:00000001FF
;PIC16F877
;CRC=B018  CREATED="17-jul-17 13:59"
