:020000040000FA
:1000000001308A0076290000FF00030E8301A10061
:100010000A08A0008A010408A2007708A300780853
:10002000A4007908A5007A08A6007B08A70083131E
:1000300083128C308400801E1F288C1A38288C3044
:100040008400001C25280C183B2822088400230863
:10005000F7002408F8002508F9002608FA00270808
:10006000FB0020088A00210E8300FF0E7F0E09008E
:100070008A110A123E288A110A12AE288C1E4828BC
:100080008C1E40281A08AE002E080C1E4528990028
:100090008C128A110A12252832308400831300083A
:1000A00003195F280630F800F701F70B5528F80B05
:1000B00054287B30F700F70B5B28800B5228003464
:1000C0002830F8001F08C73978049F000130B200BB
:1000D0004C201F151F196A281E08AB003030F8008D
:1000E0001F08C73978049F000130B2004C201F154B
:1000F0001F1978281E08AD003830F8001F08C739CE
:1001000078049F000130B2004C201F151F1986286B
:100110001E08AC006430B2004C2000341030F800EF
:100120001F08C73978049F000130B2004C201F150A
:100130001F1998281E08A9001830F8001F08C73991
:1001400078049F000130B2004C201F151F19A6280B
:100150001E08AA006430B2004C20003460208E20BB
:100160002B08C83C031CBC282C08C83C031CBC281A
:100170002D08C83C03182C292F080319C328013A5D
:100180000319D228E028831686108312861483165A
:10019000061183120615F9308F00E5308E0001300C
:1001A000AF00E0288316861083128610831606118E
:1001B00083120611D5308F0046308E00AF01E02843
:1001C00060208E202908453C031CEA282A08453C6B
:1001D00003182B292908453C031CF2282A08453C12
:1001E00003182B292F080319F928013A03190429A8
:1001F0000E298316861083128614F9308F00E5309D
:100200008E000130AF000E298316861083128610EF
:10021000D5308F0046308E00AF010E292F0803190C
:100220001529013A031920292A2983160611831258
:100230000615FE308F00C7308E000130AF002A292E
:100240008316061183120611D0308F0064308E00A1
:10025000AF012A29EA28B02860202B08633C031844
:1002600039292C08633C031839292D08633C031CE9
:1002700072292F0803194029013A03194B295529DE
:100280008316061183120615F9308F00E5308E00B3
:100290000130AF0055298316061183120611D5309F
:1002A0008F0046308E00AF0155292F0803195C29B5
:1002B000013A03196729712983168610831286145F
:1002C000FE308F00C7308E000130AF0071298316D9
:1002D000861083128610D0308F0064308E00AF01FC
:1002E00071292D290C108A110A12252884018313E3
:1002F0001F308305813083169900A6309800903016
:100300008312980083161F149F141F159F118312C8
:10031000AF011430B000A8018B1BA8178B13FA3063
:10032000B2004C20A81B8B17B00B8B291F179F17EF
:1003300083169F1383121F1483161F109F101F1103
:100340009F11B5308312900083168C160C14C030A8
:0803500083128B04AA2963004B
:02400E00723FFF
:00000001FF
;PIC16F877
;CRC=8146  CREATED="21-jul.-17 08:25"
