:020000040000FA
:1000000000308A0004280000840183131F30830518
:1000100083161F149F141F159F11FF308312A00019
:100020000130A1000430A2000330A3000430A4007A
:100030000230A5000330A6000430A7000230A8005B
:100040000330A9000430AA000130AB000330AC003B
:100050000230AD000130AE00AF00B0000330B1009F
:100060000430B2000230B3000330B4000430B500F5
:100070000230B6000330B7000430B8000230B900D7
:100080000330BA000430BB000330BC0000308316DC
:100090008600FF3087008312A000BE01BD01BE08AC
:1000A000031D9D283D081C3C031C9D2821303D0755
:1000B000840083133E1883170008FA01BF007A08F2
:1000C000C000C0010130BF00400403196F2883162F
:1000D0000610831206148316061083120610C00140
:1000E0000230BF00400403197D2883168610831256
:1000F00086148316861083128610C0010330BF0059
:10010000400403198B2883160611831206158316E3
:10011000061183120611C0010430BF004004031908
:1001200099288316861183128615831686118312E9
:0E0130008611BD0A0319BE0A4F284D28630030
:02400E00723FFF
:00000001FF
;PIC16F877
;CRC=9931  CREATED="12-jul-17 10:03"
